:020000040800F2
:10000000880A0020D5020008130300081503000821
:1000100017030008190300081B0300080000000074
:100020000000000000000000000000001D030008A8
:100030001F0300080000000021030008791B0008CE
:1000400025030008250300082503000825030008F0
:1000500025030008250300082503000825030008E0
:1000600025030008250300082503000825030008D0
:1000700025030008250300082503000825030008C0
:1000800025030008250300082503000825030008B0
:1000900025030008250300082503000825030008A0
:1000A0002503000825030008250300082503000890
:1000B0002503000825030008250300082503000880
:1000C0002503000825030008250300082503000870
:1000D00025030008652000086920000825030008A2
:1000E0002503000825030008250300082503000850
:1000F0002503000825030008250300082503000840
:10010000250300082503000825030008250300082F
:10011000250300082503000825030008250300081F
:10012000250300082503000825030008250300080F
:1001300025030008250300082503000825030008FF
:1001400025030008250300082503000825030008EF
:1001500025030008250300082503000825030008DF
:1001600025030008250300082503000825030008CF
:1001700025030008250300082503000800000000EF
:10018000250300082503000800F002F800F092F8AB
:100190000AA090E8000C82448344AAF10107DA45E2
:1001A00001D100F087F8AFF2090EBAE80F0013F0A2
:1001B000010F18BFFB1A43F001031847683600000F
:1001C00088360000103A24BF78C878C1FAD85207A0
:1001D00024BF30C830C144BF04680C6070470000C1
:1001E0000023002400250026103A28BF78C1FBD840
:1001F000520728BF30C148BF0B6070476E2900F01E
:100200008581702900F0CB82662903F06C82652914
:1002100003F06982672903F06682612903F0658231
:1002200003681B0A28BF41F08001692900F0328170
:10023000642900F02F81752900F02C816F2900F0CE
:100240005982782900F09782E92900F0F381E429A6
:1002500000F0F081F52900F0ED81EF2900F05682E1
:10026000F82900F096820368DB0928BF41F080017D
:10027000632900F0A087732900F0A587E32900F027
:10028000B087F32900F0B587002070471FB503F051
:100290001DFA01F003F804000020002102F050FFD5
:1002A000401C60600020002102F034FFE0601FBDB0
:1002B00010B510BD00F0C5FF1146FFF7E7FF02F0D3
:1002C00033F801F0A1F803B4FFF7F2FF03BC01F02B
:1002D000E9F8000017481849184B99423CBF50F8FC
:1002E000042B41F8042BF8D3154B16494FF00002AC
:1002F0008B4238BF43F8042BFAD3DFF84C00016877
:1003000041F470010160BFF34F8FBFF36F8F0F484F
:100310000047FEE7FEE7FEE7FEE7FEE7FEE7FEE753
:10032000FEE7FEE7FEE7000009480A490A4A0B4BD0
:100330007047000070390008000000201000002005
:1003400010000020880A002088ED00E089010008E4
:1003500088040020880A00208806002088060020E3
:100360000FB41CB5084B06AA7B446946009005985B
:1003700000F0E5F804460020694600F0F3F8204656
:100380001CBC5DF814FB0000F901000010B5431C13
:1003900002E010F8011B71B18107FAD14FF0013270
:1003A00002C88C1A8C4314EAC211F9D0C01A0A068A
:1003B00003D0C01E10BDC01A10BD0A0401D0801E9B
:1003C00010BD0902FCD0401E10BD70477047704739
:1003D00070B5044685690068C10601D5302600E085
:1003E0002026C00707D070BDD4E9012130469047D0
:1003F000206A401C20626D1EF6D570BD70B50446A3
:1004000085690078C00707D170BDD4E9012120209B
:100410009047206A401C20626D1EF6D570BD0968A9
:100420004A0501D540B27047C905FCD500B27047F6
:1004300009684A0501D5C0B27047C905FCD580B22C
:10044000704770B50C460546012A05D0287880060D
:1004500000D5EA69002302E0012305E05B1C93421A
:1004600002D2E05C0028F9D1A869E618C01AA86198
:10047000286A184428622846FFF7AAFF04E0D5E955
:10048000012114F8010B9047B442F8D32846FFF736
:10049000B5FF70BD2DE9F0410646002410687529AE
:1004A000314616A510D0FFF7BAFF002802DA404205
:1004B00013A507E031688A0701D512A502E04907B4
:1004C00004D511A5012401E0FFF7B2FF00210A22A3
:1004D00006F1240709E0B0FBF2FCB0FBF2F302FBEB
:1004E0001C00303078541846491C0028F3D12346AC
:1004F0002A463046BDE8F04100F068BA000000002E
:100500002D0000002B000000200000001168026890
:10051000006A530501D508700AE0D30501D50880AB
:1005200006E0130603D5C217C1E9000200E0086027
:100530000120704701694A1C02610878704700B5C4
:100540008FB0CDE901310021059105497944CDE90C
:1005500003101146684600F02DF90FB000BD0000F1
:10056000E5FFFFFF0A6802F8010B0A607047000010
:100570002DE9FF5F15468A460446DFF8AC80F84453
:100580000027D8E900103E46CDE9001010E03AF807
:1005900016106A4602A800F030FE411C07D02178F0
:1005A000890603D5E269391891420DD80744761CB3
:1005B0002078800602D5E069B84205DDAE42E6DB70
:1005C0003AF816000028E2D1A069C01BA0612046BD
:1005D000FFF7FEFED8E90010CDE90010002017E07B
:1005E0003AF818106A4602A800F007FEB0F1FF3F83
:1005F00081460BD000250DF1080B05E0D4E901215F
:100600001BF8050090476D1C4D45F7D308F101001C
:10061000B0428046E4DB206A384420622046FFF77F
:10062000EDFE00F003B800006E3100003FBCBDE8F5
:10063000C09F00002DE9F0418046D21D22F0070244
:100640000025D2E90002F52915A614D0011E72F189
:10065000000106DA0023D0EB030063EB020211A6CF
:1006600008E0D8F800108B0701D50FA602E0490773
:1006700001D50EA601251146002408F1240704E047
:1006800000F05FF930323A55641C50EA0102F7D1AC
:100690002B46324621464046BDE8F04100F096B96F
:1006A000000000002D0000002B00000020000000D2
:1006B00030B4002100F1240408E002F00705D2085C
:1006C000303542EA4372DB086554491C52EA03059F
:1006D000F3D10468002310A2250708D504F02004F4
:1006E0000C4304D0C46901230CA2641EC46130BC55
:1006F00000F06CB910B5044621461068FFF798FE6B
:1007000002462046BDE810400023D1E7D21D22F06A
:100710000701D1E90023CBE7000000003000000012
:10072000F0B40D460188090502D5214C7C4402E055
:100730001F4C7C440E34002100F1240608E002F036
:100740000F071209E75D42EA03721B097754491C3F
:1007500052EA0307F3D102780023120704D5702D63
:1007600006D009B1022311342246F0BC00F02EB9A4
:1007700001231034F8E770B504460D462146106891
:10078000FFF756FE024629462046BDE8704000238A
:10079000C6E7D21D22F00703D3E90023C0E70368B0
:1007A000126843F0200303600823C3610023B7E706
:1007B000C82F00002DE9F05F894604464FF0000A7B
:1007C000DFF874B1FB44C0F820A02046E1688847F8
:1007D000002874D0252806D0D4E901219047206A4A
:1007E000401C2062F1E700265F462046E16888470A
:1007F0002028054607DB312D05D2781910F8200C8A
:1008000008B10643F1E7B00701D526F00406C4F8A5
:100810001CA00027C4F818A02A2D09D0284602F0F1
:1008200071FC38B304EB8708303DC8F8185019E064
:1008300059F8041B204604EB87029161E168884760
:10084000012F054618D1E069002820DA26F020069D
:100850001DE0D8F8180000EB800005EB40003038B0
:10086000C8F818002046E1688847054602F04AFCAF
:100870000028EED1012F0AD02E2D08D12046E168A4
:1008800088477F1C0546022F46F02006C4DBA0697E
:10089000002803DA404246F00106A061F00701D0CB
:1008A00026F010066C2D0BD0682D09D04C2D39D0B8
:1008B0006A2D35D0742D35D07A2D33D016E038E03E
:1008C000E1682F4620468847B842054609D16C2F7B
:1008D00026D04FF48060E1680643204688470546ED
:1008E00004E06C2F1AD04FF4807006430DB3A5F1CD
:1008F0004100192802D8203546F400664A462946A8
:10090000204626604E46FFF779FC80B101280BD0C7
:10091000F61D26F0070000F1080956E74020E4E73D
:100920008020D8E70020D6E706F104094DE72846E5
:1009300052E7206A00F002B8582F000030BCBDE832
:10094000C09F30B5B0F10A0271F100034FEA900E7A
:100950004EEA817EB0EB0E0061EB91014FEA101E72
:100960004EEA017E10EB0E0041EB11114FEA102E02
:100970004EEA016E10EB0E0041EB11214FEA104ED2
:100980004EEA014E10EB0E0041EB1141401841F1CF
:1009900000014FEAD00040EA41704FEAD1014FEA2E
:1009A000810444EA907410EB800544EB01046D1956
:1009B00044EB0404521BA3414FF0000348BF0A322A
:1009C00000D530BD401C41F1000130BD2DE9F0479C
:1009D0000D4699469246044600F1240801688806AF
:1009E00004D5E06921F01001216000E00120A84257
:1009F00001DD471B00E00027A1697A1902EB09001D
:100A0000081AA0612078C00602D42046FFF7E0FC57
:100A1000002608E0D4E901211AF806009047206A70
:100A2000401C761C20624E45F4DB2078C0060AD5B7
:100A30002046FFF7CDFC06E0D4E9012130209047A5
:100A4000206A401C2062381EA7F10107F4DC07E091
:100A5000D4E9012118F805009047206A401C206263
:100A6000281EA5F10105F3DC2046FFF7C7FC20781E
:100A7000000602D50220BDE8F0870120FBE72DE942
:100A8000FF4F0C461E464FF0FF378BB0D2E90001F6
:100A9000DDF860800A908A46C1F30A5505B93D46E3
:100AA000002108464FF00000BAF1000F00F44000AA
:100AB00005DA00EB80004FF4400101EA50004FEAF4
:100AC0009059B9F1010F00DDB9460A9850EA4A0081
:100AD0000ED044F61050A5F2FF3545432F14B8F15F
:100AE000000F1ED07542291E1EDDC9F100021CE058
:100AF000B8F1010F4FF0000001D0302103E0F243C4
:100B000005E02154401CB042FBDB304600220021AE
:100B100021540B99C1F80880C1E900200FB000F002
:100B2000BCB9BD1B6D1CDEE74A4600DA694206A867
:100B300000F0F8FB06AB93E8070003AB83E807007F
:100B400050460A9901F0FEFE8DE80700A0F500501E
:100B50001F3800900398002D0ADD42F21F014A461B
:100B60000844002303A90390684602F067F909E0EE
:100B7000A0F500504A461F38002303A90390684699
:100B800002F071F98DE807000004000C03D04FF06B
:100B9000FF30410800E01046B8F1000F03D00022FA
:100BA000009215461EE0751E05D4FFF7CAFE3032CE
:100BB00062556D1EF9D5B3460122084302D00022CA
:100BC0007F1C04E02078302801D100227F1E002AFB
:100BD000099784D01DE0112D07DAFFF7B2FE3032FD
:100BE00062556D1C50EA0102F5D1084302D000980D
:100BF000C8B10EE00021681E05E0235C625C63540E
:100C00002254401E491C8142F7DBAB46A81B401E04
:100C10000990002004F80B000B98099AC0F808808E
:100C2000C0E9002B7AE711264FF0000857E72DE9BD
:100C3000F04F88460446D21D22F0070191B0D1E959
:100C40000001CDE90A0102F045FA02460B98C00FF7
:100C500001D02D2007E02068810701D52B2002E07C
:100C6000202101EAC000032A099001D0072A05DBF0
:100C700003464146204600F015FB0BE12078800634
:100C800001D5E06900E00620B8F1650F814606D085
:100C9000B8F1660F18D0B8F1670F70D131E00020BD
:100CA000B9F1110F009001DB112301E009F10103FB
:100CB0000AAA01A90CA8FFF7E2FEDDE90C700026E4
:100CC00009F10105834647E001204B4600904FF0B3
:100CD00000470AAA01A90CA8FFF7D1FEDDE90DB073
:100CE0000C995D46002610B909F101000D18B9EB09
:100CF000050003D4C0F1FF3609F10105A5EB090099
:100D00002BE0B9F1010F01DA4FF001090020B9F130
:100D1000110F0090484601DD112300E003460AAAA6
:100D200001A90CA8FFF7ABFEDDE90C704D460026CB
:100D30008346207800070AD4AB4500DA5D4601A857
:100D4000012D04DD411911F8011C302907D04F4550
:100D500002DA17F1040F04DA012082460FE06D1E5B
:100D6000EEE7002F02DCED1B3E4403E0781CA842B6
:100D700000DD7D1CB81B00F1010A4FF00047207810
:100D8000000703D4AA4501DB4FF0FF3A0021B7F179
:100D9000004F0DF143088DF8431024D002202B237F
:100DA000002F01DA7F422D230A21021EA0F101004B
:100DB00000DC5FB197FBF1FC97FBF1F201FB1C7CBF
:100DC00017460CF1300C08F801CDEEE7A8F1010050
:100DD00003702188090501D5452100E06521A0F1B6
:100DE000010800F8011C09980FA9A1EB0807FF1DD5
:100DF00000B10120411901EBEA70A1693844081AD9
:100E0000401EA0612078C00602D42046FFF7E0FA19
:100E1000099828B1D4E901219047206A401C20623A
:100E20002078C00622D52046FFF7D2FA1EE0002E19
:100E300004DBB34502DD01A8805D00E03020D4E989
:100E400001219047206A401C2062761CAAF1010013
:100E50005FEA000A0AD100F021FAC0680168405C2C
:100E6000D4E901219047206A401C2062281EA5F188
:100E70000105DCDC07E0D4E9012118F8010B9047FB
:100E8000206A401C2062381EA7F10107F3DC2046CF
:100E9000FFF7B4FA032011B041E630BCBDE8C08FC3
:100EA0002DE9F04F04460D46D21D22F0070089B00F
:100EB000D0E900974846394602F00CF90246F80F8F
:100EC00001D02D2307E02068810701D52B2302E004
:100ED000202101EAC0038DF820300BB1012000E091
:100EE0000020032A824601D0072A04DB2946204637
:100EF00000F0D8F93FE12078800601D40D2500E00C
:100F0000E569C7F30A560D2D49DA00214FEA175B50
:100F100008464FF00000002F00F4400007DA00EB15
:100F200080004FF4400100EBD07001EA60008115B1
:100F3000012901DD4FF0FF3100224FEA850CBCF1A1
:100F4000180F06D31346ACF118004FF08052C24080
:100F500003E04FF4801323FA0CF30CF10C0CBCF1FA
:100F6000200F04D3ACF1200C09FA0CF001E007FAD1
:100F70000CF000294FF0004801DD18B90FE00ED148
:100F800040450CD319EB02095F4121B9404502D11C
:100F90009F4329EA0209BBEB175F00D0761C20882B
:100FA000000502D57B48784402E07A487844193835
:100FB00008AA302302F80A30037C0AF10101002E4E
:100FC0000AF1020A53546A4602DC4FF0300101E094
:100FD0004FF031014FF001088DF8001002D0A6F259
:100FE000FF3603E059EA470100D06B4E002D02DCCA
:100FF0002178090704D54FF002082E218DF8011041
:10100000C44600210BE0C7F303433F01C35C491C06
:101010006D1E02F80830052908F1010801DA002DDB
:10102000F1DC00210CE000EB1973491C1B786D1EEC
:10103000082902F808304FEA091908F1010801DA15
:10104000002DF0DC21688B0602D516E0A8F101081E
:10105000E04505DD02EB080313F8013C302BF5D029
:10106000B8F1000F09DD02EB080313F8013C2E2B49
:1010700003D1090701D4A8F10108002D05DD3E21A7
:1010800002F808106D1E08F10108407C002E02F8DD
:10109000080008F1010804DA2D20764202F8080061
:1010A00002E02B2002F808000A214FF47A708642F1
:1010B00008F101080BDB96FBF0F3303302F808303F
:1010C00096FBF0F308F1010800FB136601E0642EC3
:1010D0000CDB642096FBF0F3303302F8083096FB0B
:1010E000F0F308F1010800FB136601E00A2E06DBAD
:1010F00096FBF1F0303002F8080008F1010896FB89
:10110000F1F001FB1060303002F80800A16908F12D
:10111000010808EB050202EB0A00081AA06120781A
:10112000C00602D42046FFF753F9216A08AE01EB4E
:101130000A00206204E0D4E9012116F8010B90476F
:10114000BAF1010AF7D22078C00602D52046FFF78F
:101150003FF96E4609E016F8010B3E280FD0D4E99E
:1011600001219047206A401C2062B8F10108F2D2A8
:101170002046FFF743F909B0032000F00FB8206ABA
:101180002844206203E0D4E90121302090476D1EFD
:10119000EBD3F8E79A27000002FCFFFF30BCBDE864
:1011A000C08F10B5436913B1AFF3008001E0FFF7C2
:1011B00048F9012010BD127800F124010A700022C4
:1011C0004A700122EDE711684FF0FF32E9E710B5F0
:1011D000436913B1AFF3008001E0FFF7C9F90120C3
:1011E00010BD128800F1240182840022C2840122F1
:1011F000EDE711684FF0FF32E9E72DE9F0411646BF
:101200000C46054600F042F8036893F801010128F6
:1012100007D0FF2C12D8185D80B101202C70BDE8DA
:10122000F081D3F807013246214603F20713C718AD
:101230002846BC46BDE8F041002360474FF0FF3030
:10124000EDE7754600F0EAF8AE46050069465346FC
:1012500020F00700854618B020B5FFF765F8BDE817
:1012600020404FF000064FF000074FF000084FF00D
:10127000000BAC46ACE8C009ACE8C009ACE8C0095A
:10128000ACE8C00921F007018D46704710B500F0A9
:1012900005F8001D10BD00BFA91E000000487047E2
:1012A000300000202DE9F0411F4604460326016866
:1012B000072A01F4006004DB08B116A505E016A5B5
:1012C00003E008B115A500E015A521F0100020608D
:1012D000A069C01EA0610FB1401EA0612046FFF7AB
:1012E00077F84FB1D4E9012138469047206A401C75
:1012F0002062C01C206206E0206AFAE7D4E90121DE
:1013000015F8010B9047761EF8D22046FFF776F8C5
:10131000BDE8F0814E414E006E616E00494E4600C0
:10132000696E66002DE9F047814616468AB0354859
:1013300078440DC88DE80D0032487844801C03AC19
:101340000DC884E80D0041F69B300844372190FB1E
:10135000F1F290FBF1F5A5F1800501FB12041B3CB5
:1013600002D56442012000E00020DFF898A080460A
:101370000027FA44AAF1BE0A0EE0E0070AD032467E
:10138000684607EB470101230AEB810101F06BFD81
:101390008DE8070064107F1C002CEED1194F7F44AC
:1013A000AE3F19E0E80715D007EB04100DF1180A5D
:1013B00090E80E008AE80E00C068F04201D198194A
:1013C00008903246012306A903A801F04CFD03ABA7
:1013D00083E807006D10641C002DE3D14FF001037A
:1013E00032466946B8F1000F03A802D001F026FD8D
:1013F00001E001F038FDC9E90001C9F808200AB090
:10140000BDE8F087A024000010B50446AFF30080CB
:101410002046BDE81040FEF756BF00000048704768
:10142000100000200000000030B44FF0013C50F8E4
:10143000042B51F8043BCCFA52F4D51A20D1FCB954
:1014400050F8042B51F8043BCCFA52F4D51A17D1BA
:10145000B4B950F8042B51F8043BCCFA52F4D51A25
:101460000ED16CB950F8042B51F8043BCCFA52F46D
:10147000D51A05D1002CDAD030BC4FF000007047EF
:1014800029BAB1FA81F111F01801D1F1200084409C
:10149000F2D1CA40CB4012F0FF0213F0FF0330BC80
:1014A000D01A704701491820ABBEFEE726000200A3
:1014B0007047000080B582B00190009141F2480170
:1014C000C4F20201086840F0010008600A2000F040
:1014D000E9FE0199086820F0010008600199086898
:1014E00020F4407008600199086820F440600860AA
:1014F0000199086820F0400008600199086840F0F0
:10150000800008600199086820F0200008600199B7
:10151000086840F0100008600199086820F0040095
:1015200008600199086820F00800086000982830D9
:101530000199886002B080BD41F24C01C4F2020101
:10154000086840F00200086040F20041C4F6000163
:10155000086820F470200860086840F420200860C3
:1015600040F22441C4F60001086820F0FF00086042
:10157000086840F04400086040F20441C4F60001ED
:10158000086840F44070086040F20C41C4F6000165
:10159000086820F470200860086840F4A020086003
:1015A00040F20841C4F60001086840F47020086069
:1015B0007047000082B05220019041F25801C4F2FD
:1015C0000201086840F40010086041F28801C4F28A
:1015D0000201086820F440500860086840F4805018
:1015E000086041F23801C4F20201086840F40010BA
:1015F0000860086820F40010086045F20041C4F259
:101600000001086820F00100086000200090FFE75A
:10161000009841F28731884204DCFFE700980130EE
:101620000090F5E745F20041C4F20001086820F49B
:1016300080500860086820F470600860086840F016
:1016400080000860086820F40030086045F2044219
:10165000C4F20002106820F400601060106840F4CA
:1016600000401060106840F00070106045F21042B9
:10167000C4F20002106820F070401060106840F062
:10168000E0401060106800F07F401060106840F487
:1016900020001060106840F440201060106840F492
:1016A00020501060106840F02F00106045F2084292
:1016B000C4F20002106820F400401060106820F4AA
:1016C00080601060106840F0A4001060106840F462
:1016D00000401060086840F00100086002B07047E8
:1016E00080B586B004908DF80F1002928DF8073007
:1016F0009DF80700012803DBFFE7029820B9FFE708
:10170000FF208DF8170034E0049800F0EDF80498FD
:101710009DF80F109DF80720012300F09DF8002090
:101720000090FFE700989DF80710884212DAFFE763
:10173000FFE7049880694007002801D4FFE7F8E735
:101740000498406A0299009A8854FFE70098013093
:101750000090E7E7FFE7049880694006002801D47D
:10176000FFE7F8E7049800F0ADF800208DF81700C7
:10177000FFE79DF9170006B080BD000080B588B076
:1017800006908DF8171004928DF80F309DF80F0019
:10179000012803DBFFE7049820B9FFE7FF208DF85D
:1017A0001F0055E0069800F09FF806989DF8171066
:1017B0009DF80F20002300F04FF8B0F1FF3F04DC4C
:1017C000FFE7FF208DF81F0042E000200290FFE7B6
:1017D00002989DF80F10884212DAFFE7FFE706989B
:1017E00080698007002801D4FFE7F8E70498029990
:1017F000405C06998862FFE7029801300290E7E7B3
:10180000FFE706988169002049060029019009D464
:10181000FFE70698806900F01001012080EA1110AE
:101820000190FFE70198C00708B1FFE7E9E70698D4
:101830008069C006002804D5FFE7FF208DF81F004F
:1018400006E0069800F03EF800208DF81F00FFE744
:101850009DF91F0008B080BD84B0039002918DF8FF
:1018600007208DF806300020009003984068009013
:10187000009849F60001CFF60041084000909DF81D
:101880000600012805D1FFE7009840F48060009031
:1018900004E0009820F480600090FFE702986FF366
:1018A0009F209DF8071040EA0141009808430090EE
:1018B000009840F400500090009803994860002080
:1018C00004B0704781B000900099486840F48040AF
:1018D0004860FFE7009880698006002801D4FFE790
:1018E000F8E701B07047000081B00090FFE7009872
:1018F00080690004002801D5FFE7F8E701B07047D0
:1019000041F24C01C4F20201086840F00100086095
:101910004FF09041086820F4006008600421C4F68C
:101920000001086820F0200008600C21C4F60001C6
:10193000086820F4406008601421C4F600010868BB
:1019400020F02000086070471421C4F600010868E8
:1019500080F020000860704741F24C01C4F202019F
:10196000086840F00400086040F60001C4F6000179
:10197000086841F20042C0F205021040086040F6DB
:101980000801C4F60001086843F60042C0F20F02E5
:101990001043086040F60C01C4F6000108680020FE
:1019A000086040F60401C4F600010A68086040F6C9
:1019B0001401C4F600010A680860704741F24C0146
:1019C000C4F20201086840F0030008604FF0904143
:1019D000086820F440700860086840F400700860EF
:1019E00040F20041C4F60001086820F47C60086001
:1019F000086840F4286008602021C4F600010868E7
:101A000020F470200860086840F4A020086040F2CC
:101A10002041C4F6000108686FF3173008600868B9
:101A200045F20002C0F25502104308600821C4F6D6
:101A30000001086840F44070086040F20841C4F6B4
:101A40000001086840F47C600860704741F2600162
:101A5000C4F20201086840F48050086041F240017D
:101A6000C4F20201086840F480500860086820F45D
:101A70008050086043F20001C4F20101086820F0C0
:101A800040000860086820F480600860086820F45E
:101A900000400860086820F480400860086820F072
:101AA0008000086043F20402C4F20102106840F4AE
:101AB00070601060106820F010001060086840F03E
:101AC00003000860086820F038000860086840F0EB
:101AD00018000860086820F400500860086840F0AA
:101AE00004000860086820F400700860106840F086
:101AF00008001060106840F004001060106820F4C6
:101B000080501060086840F0400008607047000096
:101B100081B0ADF80200FFE743F20800C4F2010013
:101B2000006800F00200022801D0FFE7F4E7BDF8EA
:101B3000020043F20C01C4F201010860FFE743F226
:101B40000800C4F2010000680006002801D5FFE784
:101B5000F5E7FFE743F20800C4F201000068C007A0
:101B600008B9FFE7F6E743F20C00C4F20100006891
:101B700080B201B07047000080B540F27440C2F2FC
:101B8000000001680131016040F27C42C2F20002B3
:101B900011680131116000680A2810D3FFE740F294
:101BA0007A40C2F20000007848B1FFE700F0B0FDD3
:101BB00040F27441C2F2000100200860FFE780BDDE
:101BC00080B582B04EF21001CEF200010020086014
:101BD0004EF21403CEF2000343F67F02C0F201027C
:101BE0001A604EF21802CEF200021060086840F04F
:101BF00002000860086840F001000860086840F0D2
:101C0000040008604FF0FF30019000F0A5FA019841
:101C1000012100F0D1FA02B080BD000083B042F291
:101C20000001C4F20201086820F00700086008689B
:101C300040F00200086041F20001C4F202010868AD
:101C400040F480700860FFE741F20000C4F2020037
:101C500000684005002801D4FFE7F5E71020029056
:101C600041F20401C4F20201086820F0F850086053
:101C7000029A086840EA0260086041F20001C4F27A
:101C80000201086820F080700860FFE741F2000060
:101C9000C4F2020000688001002801D5FFE7F5E7E3
:101CA00041F20C01C4F202010191086820F0030026
:101CB0000860086840F0020008600868142262F3B7
:101CC0000E2008600868012262F3061008600868A8
:101CD00020F0C0600860086840F08070086041F241
:101CE0000001C4F20201086840F080700860FFE75C
:101CF00041F20000C4F2020000688001002801D413
:101D0000FFE7F5E741F20801C4F20201086820F09C
:101D100003000860086840F003000860FFE741F234
:101D20000800C4F20200006800F00C000C2801D08A
:101D3000FFE7F4E741F20801C4F20201086820F06D
:101D4000F0000860086820F4E0600860086820F48B
:101D50006050086041F20001C4F20201086820F0FE
:101D600080600860FFE741F20000C4F202000068F2
:101D70004001002801D5FFE7F5E741F21001C4F268
:101D800002010091086820F4FE400860086840F4F1
:101D9000C0500860086840F400300860086840F4EB
:101DA0008030086041F20001C4F20201086840F08E
:101DB00080600860FFE741F20000C4F202000068A2
:101DC0004001002801D4FFE7F5E741F28801C4F2A1
:101DD0000201086820F44000086041F26001C4F28A
:101DE0000201086840F40010086003B0704700006A
:101DF00041F24C01C4F20201086820F001000860C1
:101E0000086840F0010008604FF09041086820F039
:101E1000F0000860086840F0A00008602021C4F6C7
:101E20000001086820F47F400860086840F4EE4034
:101E300008600821C4F60001086820F0F00008607E
:101E4000086840F0F00008600421C4F6000108684A
:101E500020F00C0008600C21C4F60001086820F096
:101E6000F0000860086840F050000860704700000B
:101E700080B582B0FFF7BCFF40F28441C2F200019E
:101E80008020C4F20200086044F20041C4F2000164
:101E90000091FFF70FFB009841F25802C4F20202D2
:101EA000116821F400311160116841F400311160B2
:101EB00041F28802C4F20202116821F00C011160A3
:101EC000116841F00401116040F20001C2F200010A
:101ED00009688C22C4F202021160A822C4F2020234
:101EE000116821F070611160116841F0007111609A
:101EF00000F0ECF826200190002100F07FF9019815
:101F000000F042F902B080BD80B586B00590049122
:101F10000498022849D1FFE7059800784F2805D09A
:101F2000FFE7059800786F281BD1FFE7002002909B
:101F300000F098FC0120039000F0A0FC02990398A7
:101F400040F27942C2F20002117040F27012C2F205
:101F500000020321117040F27111C2F200010870F9
:101F6000FFE705980078432805D0FFE7059800783B
:101F7000632819D1FFE70120019000F073FC01985C
:101F800000F07CFC019840F27941C2F20001087037
:101F900040F27012C2F200020321117040F271117E
:101FA000C2F200010870FFE7FFE706B080BD000045
:101FB00080B584B003900398FEF7E8F98DF80B0024
:101FC00000208DF80A00FFE79DF80A009DF80B102D
:101FD000884211DAFFE703989DF80A20805C40F2FE
:101FE0000801C2F2000109688854FFE79DF80A0061
:101FF00001308DF80A00E7E79DF80B0040F27841C8
:10200000C2F20001087040F28440C2F20000006891
:102010000068C00720BBFFE740F20000C2F20000EA
:102020000168019140F20802C2F2000211680160E9
:1020300001991160016840F28440C2F20000026818
:10204000D16040F27841C2F200010A7803685A6018
:102050000268106840F00100106000200870FFE77F
:1020600004B080BD7047000080B5262000F05CF809
:1020700044F21C40C4F2000000688006002809D524
:10208000FFE744F22440C4F200000088C0B200F030
:10209000FFFBFFE744F21C40C4F20000006840066A
:1020A000002812D5FFE744F22041C4F2000108687D
:1020B00040F0400008608021C4F20201086820F06E
:1020C0000100086000F060FAFFE780BD81B0009079
:1020D0000099086820F0010008600099086846F639
:1020E000FF72CEF6FF72104008600099486820F435
:1020F00040504860009942F28D00C860009908681D
:1021000040F00C0008600099086840F0600008602A
:102110000099886840F0800088600099086840F065
:102120000100086001B0704781B08DF803009DF98F
:10213000030000280ED4FFE79DF9031001F01F02F1
:10214000012090404A094EF28021CEF2000141F870
:102150002200FFE701B0704781B08DF803009DF9C0
:10216000030000280ED4FFE79DF9031001F01F02C1
:10217000012090404A094EF20011CEF2000141F8D0
:102180002200FFE701B0704781B08DF803009DF990
:10219000030000280ED4FFE79DF9031001F01F0291
:1021A000012090404A094EF20011CEF2000141F8A0
:1021B0002200FFE701B0704782B08DF80700009160
:1021C0009DF9070000280AD4FFE7009800019DF957
:1021D00007104EF20042CEF2000288540BE0009845
:1021E00000019DF8071001F00F014EF61452CEF2D7
:1021F00000028854FFE702B07047000082B08DF8FB
:10220000070000919DF9070000280AD4FFE7009815
:1022100000019DF907104EF20042CEF200028854F0
:102220000BE0009800019DF8071001F00F014EF639
:102230001452CEF200028854FFE702B0704700004B
:1022400080B582B08DF807000020ADF804009DF83D
:102250000710BDF8040040EA012040F40040ADF84A
:102260000400BDF80400FFF753FCC0B202B080BD0B
:1022700080B582B08DF807008DF806100020ADF80B
:1022800004009DF807109DF8060040EA0121BDF802
:1022900004000843ADF80400BDF80400FFF738FC63
:1022A00002B080BD81B0009040F27441C2F20001E2
:1022B0000020086040F27C41C2F2000108604EF24A
:1022C0001801CEF2000108604EF21401CEF20001B6
:1022D00043F67F00C0F2010008604EF21001CEF21A
:1022E0000001086840F001000860FFE740F27C4010
:1022F000C2F2000000680099884201D2FFE7F5E7CA
:102300004EF21001CEF20001086820F001000860D2
:1023100001B0704780B531200B21FFF7A9FF2D20B8
:102320000821FFF7A5FF80BD80B598B010A80C90DC
:1023300000200E901790FFF771FCFFF70DFBFFF7E1
:102340003FFCFFF795FDFFF7DBFAFFF737FBFFF7E1
:102350007DFBFFF7DFFFFFF7EFF8FFF72BF940F208
:102360007000C2F200000D9043F2EC71C0F6000163
:10237000FDF7F6FF0D98FFF71BFE0E988DF83D0058
:1023800090208DF83F00FFE79DF83F1045F2004098
:10239000C4F200000A900DF13D0201230993FFF7FA
:1023A000EDF9099B0A989DF83F100DF13E02FFF7E9
:1023B00097F99DF83E2040F27000C2F200000B90A9
:1023C00043F2FE71C0F60001FDF7CAFF0B98FFF75C
:1023D000EFFD14A812A910AA00F012F90C990B989D
:1023E00091ED040B91ED021B91ED002B694681EDFF
:1023F000022B81ED001B53EC102B43F60301C0F6BA
:102400000001FDF7ADFF0B98FFF7D2FD40F2701011
:10241000C2F200000078012810DBFFE740F27110E3
:10242000C2F20000007840B9FFE740F27011C2F23A
:102430000001087801380870FFE727E09DF83E00AA
:1024400018280EDBFFE70020089000F00BFA0120AF
:1024500000F014FA089840F27941C2F200010870C5
:1024600013E09DF83E0016280EDCFFE701200790E0
:1024700000F0F8F9079800F001FA079840F2794166
:10248000C2F200010870FFE7FFE7FFE740F2794082
:10249000C2F200000078012815D1FFE712981399C5
:1024A0009FED310B53EC102B01F002F958B9FFE707
:1024B0000020069000F0E2F9069840F27111C2F295
:1024C0000001087016E040F27940C2F20000007886
:1024D00001280ED1FFE7129813999FED250B53ECBD
:1024E000102B01F0DEF820B9FFE7012000F0C6F95B
:1024F000FFE7FFE740F27940C2F200000078A8B998
:10250000FFE7109811999FED1C0B53EC102B01F075
:10251000CFF858B9FFE70020059000F0AFF9059813
:1025200040F27111C2F20001087015E040F27940EA
:10253000C2F20000007870B9FFE7109811999FED82
:10254000100B53EC102B01F0ACF820B9FFE7012081
:1025500000F094F9FFE7FFE7FFF7F6F94FF47A7020
:10256000FFF7A0FE10E700BF66666666666620405D
:10257000CDCCCCCCCC4C204085EB51B81E851D4039
:102580006666666666661D4081B040F27840C2F2BB
:1025900000000078012828DBFFE740F20000C2F2CB
:1025A00000000168009140F20802C2F200021168C6
:1025B000016000991160016840F28440C2F200009D
:1025C0000268D160026844F22841C4F200019160BF
:1025D00040F27841C2F20001097802685160016856
:1025E000086840F001000860FFE740F27841C2F25D
:1025F00000010020087001B07047000000000000DA
:1026000080B588B00790069105920020ADF81200C1
:10261000ADF81000ADF80E003220FFF711FE0146B4
:10262000BDF812000843ADF812003320FFF708FE92
:102630000146BDF8120040EA0120ADF81200342036
:10264000FFF7FEFD0146BDF810000843ADF810008D
:102650003520FFF7F5FD0146BDF8100040EA0120E6
:10266000ADF810003620FFF7EBFD0146BDF80E0077
:102670000843ADF80E003720FFF7E2FD0146BDF834
:102680000E0040EA0120ADF80E00BDF8120000F087
:102690003DF900F00DFF41EC100B51EC100B9FEDDC
:1026A0001A0B53EC102B0293019200F06BFD41ECDE
:1026B000100B079880ED000BBDF8100000F026F914
:1026C00000F0F6FE019A029B41EC100B51EC100B4E
:1026D00000F058FD41EC100B069880ED000BBDF8A2
:1026E0000E0000F013F900F0E3FE019A029B41ECAA
:1026F000100B51EC100B00F045FD41EC100B059850
:1027000080ED000B08B080BD3333333333333F40AB
:1027100081B040F20400C2F2000090F90000C0B99C
:10272000FFE740F28040C2F200000078072807D19E
:10273000FFE740F28041C2F200010020087007E08C
:1027400040F28041C2F20001087801300870FFE7D2
:1027500016E040F28040C2F20000007838B9FFE78E
:1027600040F28041C2F200010720087007E040F209
:102770008041C2F20001087801380870FFE7FFE7E6
:1027800040F28040C2F20000007801460091072824
:1027900066D80099DFE801F004101C2834404C583A
:1027A00040F61401C4F600010868002008600868BB
:1027B00040F40870086053E040F61401C4F60001CC
:1027C000086800200860086840F40070086047E06E
:1027D00040F61401C4F6000108680020086008688B
:1027E00040F4107008603BE040F61401C4F60001AC
:1027F000086800200860086840F0400008602FE08A
:1028000040F61401C4F6000108680020086008685A
:1028100040F4A070086023E040F61401C4F6000103
:10282000086800200860086840F48070086017E0BD
:1028300040F61401C4F6000108680020086008682A
:1028400040F4907008600BE040F61401C4F60001FB
:10285000086800200860086840F020000860FFE772
:1028600001B0704781B08DF803009DF8030040F27D
:102870000401C2F20001087001B0704781B00090FD
:10288000009840F27A41C2F20001087001B070472E
:1028900080B582B08DF807009DF8070040F27233D2
:1028A000C2F200031A78511C197040F27331C2F25F
:1028B000000188549DF807000A2825D1FFE740F25F
:1028C0007230C2F20000017840F27330C2F20000B0
:1028D000FFF71AFB00200090FFE70098FF280CDCB0
:1028E000FFE7009A40F27331C2F2000100208854E1
:1028F000FFE7009801300090EFE740F27231C2F23A
:10290000000100200870FFE702B080BD82B0ADF882
:1029100004004FF40040ADF80200BDF80400BDF81B
:102920000210084205D1FFE7BDF80400ADF806002B
:1029300004E0BDF80400ADF80600FFE7BDF90600AD
:1029400002B070475FEA400C08BF91F0000F4FEAF9
:102950008C234FEAC12243EA51514FEA1C5018BF61
:1029600000F5F0404FEA300018BF41F000415FEA47
:102970006C5C00F02980BCF1FF3F08BF40F0804054
:102980007047130C06BF12044FF0100C4FF0000CF0
:10299000130E04BF12020CF1080C130F04BF120136
:1029A0000CF1040C930F04BF92000CF1020CD30F36
:1029B00004BF52000CF1010C11464FF00002A0F1CF
:1029C0001F00A0EB0C00704711F0004F08BF7047CC
:1029D00031F000413FF4D5AF0B0C06BF09044FF0B6
:1029E000100C4FF0000C0B0E04BF09020CF1080C88
:1029F0000B0F04BF09010CF1040C8B0F04BF8900FD
:102A00000CF1020CCB0F04BF49000CF1010CCCF10E
:102A1000200322FA03F341EA030102FA0CF2A0EBCD
:102A20000C0000F10100704723F07F4720F07F4C3D
:102A300080EA030000F00040ACEB070303F57C5391
:102A400003F1FF032DE9804909B44FEA144324EA56
:102A500003484FEA154B25EA0B4E0FF2042606EB0E
:102A600013273E7803FB0667C7F5000707FB06F64A
:102A70004FEAD64606F102064FEA543707FB066CCA
:102A8000CCF1005C4FEA1C472CEA074C0CFB06F526
:102A900007FB06F404EB15464FEA961649085FEA71
:102AA000320234BF00204FF000404FEAD13706FB1E
:102AB00007FC4FEA1C4C0CFB0BF7D21B03FB0CF77B
:102AC00061EB07010CFB0EF7B0EB074072EB17420E
:102AD0000CFB08F734BFA2EB0742B2EB074261EBF5
:102AE00017414FEA0C444FEA910706FB07FC4FEAF7
:102AF0001C4C0CFB0BF7B0EBC74072EB573203FBDF
:102B00000CF734BFA2EBC742B2EBC74261EB5731BF
:102B10000CFB0EF7B0EBC70072EB57720CFB08F71B
:102B200034BFA2EBC702B2EBC70261EB57714FEAA9
:102B3000816141EA92114FEA826242EA90124FEAC1
:102B4000806004EBCC04039F4FEAD13706FB07FCFF
:102B50004FEA1C4C0CFB0BF7D21B03FB0CF761EB91
:102B600007010CFB0EF7B0EB074072EB17420CFBB2
:102B700008F734BFA2EB0742B2EB074261EB174103
:102B80004FEA8C5504EB9C244FEA910706FB07FCA7
:102B90004FEA1C4C0CFB0BF7B0EBC74072EB573203
:102BA00003FB0CF734BFA2EBC742B2EBC74261EBA9
:102BB00057310CFB0EF7B0EBC70072EB57720CFBF2
:102BC00008F734BFA2EBC702B2EBC70261EB577143
:102BD0004FEA816141EA92114FEA826242EA901221
:102BE0004FEA806015EB4C2544F100044FEAD137E1
:102BF00006FB07FC4FEA1C4C0CFB0BF7D21B03FB3C
:102C00000CF761EB07010CFB0EF7B0EB074072EB22
:102C100017420CFB08F734BFA2EB0742B2EB0742A6
:102C200061EB17414FEA813141EA92414FEA82322A
:102C300042EA90424FEA80304FEA0C7615EB1C15C1
:102C400044F1000448EA03434EEA0B484FF0000EFB
:102C5000B2EB080C71EB030724BF624639464EEB1A
:102C60000E0E4FF0000B0018524149414BEB0B0B7D
:102C7000B2EB080C71EB03077BF1000B24BF62463B
:102C800039464EEB0E0E4FF0000B001852414941F1
:102C90004BEB0B0BB2EB080C71EB03077BF1000B5A
:102CA00024BF624639464EEB0E0E51EA020718BFAA
:102CB00046F0010616EB0E7655F1000254F10001C4
:102CC00003D5BDE88901BDE80088BDE88901BDE8FC
:102CD0000048B619524141EB0101A3F101037047CD
:102CE00080807F7E7D7C7B7A797877767675747349
:102CF000727171706F6E6E6D6C6C6B6A6A69686808
:102D0000676666656464636362616160605F5F5E9D
:102D10005E5D5D5C5C5B5B5A5A5959585857575613
:102D20005655555554545353525252515150505078
:102D30004F4F4F4E4E4D4D4D4C4C4C4B4B4B4A4ACA
:102D40004A4949494848484747474746464645450E
:102D50004544444444434343434242424241414147
:102D60009C46002B30D477002BD04FEA37071CB598
:102D700003B44FF010004FF01001BAF1000F06D06D
:102D8000BCF1000FDCBF40F0080040F008014FF03C
:102D900000000FBCBDE810400BF1010BBBF1010FAF
:102DA00008BF5FEA170722BF12F1010211F101010A
:102DB0004FF0004143F1000300F0004043EA0000FF
:102DC0007047F9D35708D0E746EA06464FEA164659
:102DD00013F1400F1FDD13F1200FDFBF16430A462A
:102DE000002120335B42BED0C3F1200746EA0646ED
:102DF0004FEA164602FA07F746EA070622FA03F2F6
:102E0000C3F1200701FA07F742EA070221FA03F1AA
:102E10004FF00003A7E746EA020646EA06464FEAF5
:102E2000164646EA0106BCBF46EA0646360C4FF097
:102E300000034FF000024FF0000194E72DE9804CB1
:102E400070B49A46934691E8380007C831EA400CBE
:102E500048BF34EA430C03D5FFF7E6FDFFF780FFD8
:102E6000F0BCBDE8008C2DE9804C70B49A469346C6
:102E700091E8380007C810F0804F08BF13F0804F6A
:102E800003D100F005F8FFF76BFFF0BCBDE8008C44
:102E900020F07F4723F07F4C80EA030000F00040E1
:102EA00007EB0C03A3F57C53A3F1FE0392F0000F94
:102EB00000F0B38095F0000F00F077802DE9014914
:102EC0004FEA114021EA00484FEA144624EA064737
:102ED00000FB06FC08FB06F607FB08F818EB0648A3
:102EE0004CEB164C00FB07F718EB07484CEB174070
:102EF0004FEA124B22EA0B4E4FEA154625EA0647E7
:102F00000BFB06FC0EFB06F607FB0EFE1EEB064E49
:102F10004CEB164C0BFB07F71EEB074E4CEB174B1D
:102F200018EB0B0840F1000018EB0E0B58EB0008F3
:102F300040F100008F1A4FF000014FF000063CBF37
:102F4000C943661B14BFB5EB040C00213CBFC94349
:102F5000F61B4FEA174427EA04454FEA1C472CEAC0
:102F6000074C04FB076205FB07F70CFB05F616EBA5
:102F7000074642EB174204FB0CFC16EB0C4642EBF7
:102F80001C421BEB060658EB020241414EEA8E0E34
:102F900046EA9E0601D5BDE80189B619524141EBCA
:102FA0000101A3F10103BDE801894FEA144524EAB8
:102FB00005464FEA114721EA074C05FB07F406FBDB
:102FC00007F70CFB06F111EB074144EB174405FB37
:102FD0000CFC11EB0C4144EB1C444FEA124722EA73
:102FE000074C05FB07F206FB07F70CFB06F616EB92
:102FF000074642EB174205FB0CFC16EB0C4642EB76
:103000001C456A1854F1000148BF7047B619524177
:1030100041EB0101A3F10103704795F0000F37D098
:103020004FEA114221EA02464FEA144724EA074CCC
:1030300002FB07F106FB07F70CFB06F414EB074451
:1030400041EB174102FB0CFC14EB0C4441EB1C411F
:103050004FEA154725EA074C02FB07F506FB07F781
:103060000CFB06F616EB074645EB174502FB0CFC7E
:1030700016EB0C4645EB1C42121951F1000148BFFA
:103080007047B619524141EB0101A3F101037047AA
:103090004FEA144524EA05464FEA114721EA074C56
:1030A00005FB07F106FB07F70CFB06F212EB0742E4
:1030B00041EB174105FB0CFC12EB0C4251EB1C41A0
:1030C0004FF0000648BF7047921841EB0101A3F191
:1030D0000103704703B401984100009850EAC120F1
:1030E00018BF04204A0D18BF40F0010040F2FF72E3
:1030F000B2EB515F08BF40F00200012808BF052075
:1031000002B0704730380A2801D2012070470020F1
:103110007047000010B500290AD00878002807D0B1
:1031200005487844FEF780F9002801D0002010BD42
:103130000248784410BD0000220700001A07000072
:1031400010B500290AD00878002807D0054878442F
:10315000FEF76AF9002801D0002010BD024878442B
:1031600010BD0000120700000A070000491058BFF8
:10317000C1F140415B1058BFC3F140438B42EFF3B4
:10318000008070472DE9C04130B4DFF8A4C23CEAAA
:10319000111418BF3CEA131400F0ED801CEA11145E
:1031A00081EA030544EAD57418BF1CEA131500F040
:1031B000C880A4EB050404F17F7404F500344FF0DB
:1031C000004545EAC12145EAC32341EA505143EA9B
:1031D00052534FEAC0204FEAC222994208BF9042A0
:1031E00000F09D804FEA13650FF24416765D4FEABA
:1031F000134506FB05F7C7F1807706FB07F74FEA93
:10320000D737A7FB03687642A7FB06CEC8F5803800
:1032100038BFA8F1010807FB08E6A6FB028C4FF0B7
:10322000000EE6FB03CEDCF1000CCEF1004E38BF01
:10323000AEF1010EA6FB0C584FF00007E6FB0E871F
:10324000A1FB08C6A0FB07CE16EB0E064FF000054B
:1032500045F10005E1FB076515F1E04E7EBFA4F5E1
:1032600080345FEA46066D4116F1800745F100059E
:103270004FEA172747EA05674FEA15254FEA066622
:10328000A6F1DE46B6F1805F20D9384605EBC47161
:1032900024F0010C01EB0C11BCF1FE6F02D8F0BC64
:1032A000BDE8008124425CBF01F5801E9EEAC47F18
:1032B00002D4F0BCBDE80081244200F13980A1F1C4
:1032C000C041F0BCBDE8004100F0D0B94FEAD020C9
:1032D00040EA41504FEAD1214FEAD22242EA43521A
:1032E0004FEAD323A7FB028607FB036605FB0266B2
:1032F0001EEA0E0F58BFA6EB0056B6EB00564FEA7B
:10330000520E4EEAC37E18EB0E0E56EB530EBCD592
:1033100018EB02085E417F1C55F10005B5E74FF43C
:1033200080154FF000074FF000064FF00008ACE7A3
:1033300001F1C04101F000414FF00000F0BCBDE8D8
:1033400000810CEA131511EA0C1F00D00CE013EAFF
:103350000C1F00F026804FF0000081EA030101F00D
:103360000041F0BCBDE80081F0BCBDE8004181EA4D
:10337000030100F07BB9F0BCBDE8004170B500F07E
:1033800027F900BF097EFC3E00F007B84FF00000AF
:1033900081EA030101F00041704781EA030100F076
:1033A00065B9F0BCBDE8004122494FF0000070470C
:1033B000FFFDFBF9F7F5F4F2F0EEEDEBE9E8E6E4FA
:1033C000E3E1E0DEDDDBDAD8D7D5D4D3D1D0CFCD81
:1033D000CCCBCAC8C7C6C5C4C2C1C0BFBEBDBCBBBA
:1033E000BAB9B8B7B6B5B4B3B2B1B0AFAEADACABB5
:1033F000AAA9A8A8A7A6A5A4A3A3A2A1A09F9F9E8F
:103400009D9C9C9B9A999998979796959594939340
:10341000929191908F8F8E8E8D8C8C8B8B8A8989D7
:10342000888887878685858484838382828181805A
:103430000000FF070000F87F51EA030C17D41CF5C9
:10344000801F58BFBCF5801F00F10680994218BF4D
:10345000704708BF9042704707D711F5801F58BFCB
:1034600013F5801F19D499427047894270471CF5A3
:10347000801F08D5BCF5801FF7D58B4218BF704759
:1034800008BF824270474FF4001C1CEB410F38BF4D
:103490001CEB430F01D28B42704770B500F098F8D7
:1034A000922449004FF000514FF08053FFF75EBE69
:1034B00010F0004248BF4042B0FA80F310FA03F126
:1034C0000AD0C3F11D0303F5806302EB03524FEAF8
:1034D000415002EBD12170474FF0000070470000CF
:1034E00051EA030C17D41CF5801F58BFBCF5801F90
:1034F00000F10680994218BF704708BF904270479C
:1035000007D711F5801F58BF13F5801F19D49942B2
:103510007047894270471CF5801F08D5BCF5801F95
:10352000F7D58B4218BF704708BF824270474FF4EF
:10353000001C1CEB410F38BF1CEB430F01D28B4228
:10354000704770B500F044F8922449004FF0805164
:103550004FF00053FFF70ABE51EA030C17D41CF5D5
:10356000801F58BFBCF5801F00F10680994218BF2C
:10357000704708BF9042704707D711F5801F58BFAA
:1035800013F5801F19D499427047894270471CF582
:10359000801F08D5BCF5801FF7D58B4218BF704738
:1035A00008BF824270474FF4001C1CEB410F38BF2C
:1035B0001CEB430F01D28B42704770B500F008F846
:1035C000922449004FF000514FF08053FFF7CEBDD9
:1035D0000EF1020E2EF0030E5EF8046B364205D497
:1035E000012A43EB030515F5001F12D8012841EB12
:1035F000010C1CF5001F0CD80ED14FEAD17C0CEB4E
:103600004C0C0CF1020C15F5001F08BF4CEBD37CE1
:1036100004E04FF0080C01E04FEAD37C0CEB4C05C2
:1036200026FA05F606F00706B6F1040C06D20EEBF4
:10363000860CBDE870404CF0010C6047DFE80CF0F0
:10364000090B02024FF00041A1F500214FF00000EC
:1036500070BD19461046012851EB010418BFD4F57E
:10366000001484BF002001F0004170BD0808A0F5DF
:1036700000114FEA3101704710B5FFF7DDFE0CBFB6
:103680000120002010BD10B5FFF7D6FE14BF0120A9
:10369000002010BD10B5FFF723FF8CBF01200020D4
:1036A00010BD10B5FFF71CFF2CBF0120002010BD7E
:1036B00010B5FFF751FF94BF0120002010BD10B5D9
:1036C000FFF74AFF34BF0120002010BDF1EE100AC1
:1036D0004FF6FF71C0F2C03120EA010040F04070A7
:1036E000E1EE100A7047FDF7A2BAFDF7D9BB000062
:1036F000000000000000000030313233343536372E
:103700003839414243444546403058003031323325
:103710003435363738396162636465664030780025
:10372000040000080000000000000002000100008A
:10373000103031323334353637383961626364657D
:10374000667870003031323334353637383941429B
:10375000434445465850000002400000000000A0CD
:103760000000000005400000000000C8000000004C
:103770000C4000000000409C0000000019400000C8
:103780000020BCBE0000000034400000BFC91B8EFA
:1037900000000004B5400000504BCFD06607E2CFD8
:1037A000010000006C4100003E8251AADFEEA73408
:1037B00001000000D9420000DCB5A0E23A301F97BA
:1037C000FFFFFFFFB4450000FD25A0C8E9A3C14FDE
:1037D000FFFFFFFFFF3F000000000080000000002F
:1037E000FF3F0000000000800000000050726F6783
:1037F00072616D205374617274732E0D0A0025641A
:103800000D0A00416363656C65726174696F6E3A9D
:1038100020252E32662C20252E32662C20252E3295
:10382000660D0A007039000800000020100000003A
:10383000C40100088039000810000020780A000048
:10384000E00100081C00000043000000F8FFFFFF3B
:103850000C0000000E0000000F0000002E00000011
:103860001001000043000000F8FFFFFF004040404F
:103870004040404040404141414141404040404043
:1038800040404040404040404040404040050202EF
:1038900002020202020202020202020202202020AE
:1038A000202020202020200202020202020290900A
:1038B0009090909010101010101010101010101008
:1038C000101010101010101002020202020288885C
:1038D0008888888808080808080808080808080868
:1038E0000808080808080808020202024000000050
:1038F00000000000000000000000000000000000C8
:1039000000000000000000000000000000000000B7
:1039100000000000000000000000000000000000A7
:103920000000000000000000000000000000000097
:103930000000000000000000000000000000000087
:103940000000000000000000000000000000000077
:103950000000000000000000000000000000000067
:103960000000000000000000000000000000000057
:10397000720100200100000072020020000000001F
:040000050800018965
:00000001FF
